S01700004763634170706C69636174696F6E312E737265635B
S11300000C942A000C9434000C9434000C943400A6
S11300100C9434000C9434000C9434000C9434008C
S11300200C9434000C9434000C9434000C9434007C
S11300300C9434000C9434000C9434000C9434006C
S11300400C9434000C9434000C9434000C9434005C
S11300500C94340011241FBECFE5D8E0DEBFCDBF21
S11300600E9480010C948B010C940000823489F16D
S113007018F4813441F00895833409F450C0843471
S113008009F473C0089541110CC02AB381E090E0D3
S113009002C0880F991F6A95E2F7809582238ABB74
S11300A00895413059F42AB381E090E002C0880FEA
S11300B0991F6A95E2F7822B8ABB08952AB381E0DF
S11300C090E002C0880F991F6A95E2F7822B8ABBE1
S11300D0089541110CC027B381E090E002C0880F5D
S11300E0991F6A95E2F78095822387BB0895413072
S11300F059F427B381E090E002C0880F991F6A95F4
S1130100E2F7822B87BB089527B381E090E002C019
S1130110880F991F6A95E2F7822B87BB08954111D6
S11301200CC024B381E090E002C0880F991F6A9547
S1130130E2F78095822384BB0895413059F424B3B7
S113014081E090E002C0880F991F6A95E2F7822B44
S113015084BB089524B381E090E002C0880F991F06
S11301606A95E2F7822B84BB089541110CC021B338
S113017081E090E002C0880F991F6A95E2F78095AC
S1130180822381BB0895413059F421B381E090E08A
S113019002C0880F991F6A95E2F7822B81BB0895EC
S11301A021B381E090E002C0880F991F6A95E2F7BD
S11301B0822B81BB0895823489F118F4813441F093
S11301C00895833409F450C0843409F473C0089545
S11301D041110CC02BB381E090E002C0880F991F3D
S11301E06A95E2F7809582238BBB0895413059F4D8
S11301F02BB381E090E002C0880F991F6A95E2F763
S1130200822B8BBB08952BB381E090E002C0880F52
S1130210991F6A95E2F7822B8BBB089541110CC09C
S113022028B381E090E002C0880F991F6A95E2F735
S11302308095822388BB0895413059F428B381E026
S113024090E002C0880F991F6A95E2F7822B88BB61
S1130250089528B381E090E002C0880F991F6A9541
S1130260E2F7822B88BB089541110CC025B381E0CD
S113027090E002C0880F991F6A95E2F78095822367
S113028085BB0895413059F425B381E090E002C064
S1130290880F991F6A95E2F7822B85BB089525B3D1
S11302A081E090E002C0880F991F6A95E2F7822BE3
S11302B085BB089541110CC022B381E090E002C0D7
S11302C0880F991F6A95E2F78095822382BB08956F
S11302D0413059F422B381E090E002C0880F991FA5
S11302E06A95E2F7822B82BB089522B381E090E005
S11302F002C0880F991F6A95E2F7822B82BB08958A
S113030041E064E081E40E94360041E064E081E47D
S10D03100E94DB00FACFF894FFCF3F
S9030000FC
